{
  "contractName": "Swap",
  "abi": [
    {
      "inputs": [
        {
          "internalType": "contract IERC20",
          "name": "_Gold",
          "type": "address"
        },
        {
          "internalType": "contract IERC20",
          "name": "_Silver",
          "type": "address"
        },
        {
          "internalType": "uint256",
          "name": "_ratioEthToGold",
          "type": "uint256"
        },
        {
          "internalType": "uint256",
          "name": "_ratioEthToSilver",
          "type": "uint256"
        }
      ],
      "stateMutability": "nonpayable",
      "type": "constructor"
    },
    {
      "anonymous": false,
      "inputs": [
        {
          "indexed": false,
          "internalType": "bytes32",
          "name": "_type",
          "type": "bytes32"
        },
        {
          "indexed": false,
          "internalType": "uint256",
          "name": "_amount",
          "type": "uint256"
        }
      ],
      "name": "EthToTokenSwapped",
      "type": "event"
    },
    {
      "anonymous": false,
      "inputs": [
        {
          "indexed": true,
          "internalType": "address",
          "name": "previousOwner",
          "type": "address"
        },
        {
          "indexed": true,
          "internalType": "address",
          "name": "newOwner",
          "type": "address"
        }
      ],
      "name": "OwnershipTransferred",
      "type": "event"
    },
    {
      "anonymous": false,
      "inputs": [],
      "name": "SwapDeployed",
      "type": "event"
    },
    {
      "anonymous": false,
      "inputs": [
        {
          "indexed": false,
          "internalType": "uint256",
          "name": "_newRatioEthToGold",
          "type": "uint256"
        },
        {
          "indexed": false,
          "internalType": "uint256",
          "name": "_newRatioEthToSilver",
          "type": "uint256"
        }
      ],
      "name": "TokenRatioChanged",
      "type": "event"
    },
    {
      "anonymous": false,
      "inputs": [
        {
          "indexed": false,
          "internalType": "bytes32",
          "name": "_type",
          "type": "bytes32"
        },
        {
          "indexed": false,
          "internalType": "uint256",
          "name": "_amount",
          "type": "uint256"
        }
      ],
      "name": "TokenToEthAndTokenToTokenSwapped",
      "type": "event"
    },
    {
      "inputs": [],
      "name": "owner",
      "outputs": [
        {
          "internalType": "address",
          "name": "",
          "type": "address"
        }
      ],
      "stateMutability": "view",
      "type": "function"
    },
    {
      "inputs": [],
      "name": "ratioEthToGold",
      "outputs": [
        {
          "internalType": "uint256",
          "name": "",
          "type": "uint256"
        }
      ],
      "stateMutability": "view",
      "type": "function"
    },
    {
      "inputs": [],
      "name": "ratioEthToSilver",
      "outputs": [
        {
          "internalType": "uint256",
          "name": "",
          "type": "uint256"
        }
      ],
      "stateMutability": "view",
      "type": "function"
    },
    {
      "inputs": [],
      "name": "renounceOwnership",
      "outputs": [],
      "stateMutability": "nonpayable",
      "type": "function"
    },
    {
      "inputs": [
        {
          "internalType": "address",
          "name": "newOwner",
          "type": "address"
        }
      ],
      "name": "transferOwnership",
      "outputs": [],
      "stateMutability": "nonpayable",
      "type": "function"
    },
    {
      "stateMutability": "payable",
      "type": "receive"
    },
    {
      "inputs": [
        {
          "internalType": "bytes32",
          "name": "_type",
          "type": "bytes32"
        },
        {
          "internalType": "uint256",
          "name": "_amount",
          "type": "uint256"
        }
      ],
      "name": "swapEthFor",
      "outputs": [],
      "stateMutability": "payable",
      "type": "function"
    },
    {
      "inputs": [
        {
          "internalType": "bytes32",
          "name": "_type",
          "type": "bytes32"
        },
        {
          "internalType": "uint256",
          "name": "_amount",
          "type": "uint256"
        }
      ],
      "name": "swapTokenFor",
      "outputs": [],
      "stateMutability": "nonpayable",
      "type": "function"
    },
    {
      "inputs": [
        {
          "internalType": "uint256",
          "name": "_newRatioEthToGold",
          "type": "uint256"
        },
        {
          "internalType": "uint256",
          "name": "_newRatioEthToSilver",
          "type": "uint256"
        }
      ],
      "name": "changeTokenRatio",
      "outputs": [],
      "stateMutability": "nonpayable",
      "type": "function"
    }
  ],
  "bytecode": "0x60806040527fd1c7ca706a8e8b2bf28ed38043a077f5ca6a5a4397ada8d6b54e84d780e6caf86005557f11eb4b32f1fa735086fbe87e478059bb3a657a0ff464ffb9b901e483f181b2d96006557f59287ce8f9c3e0bb5cf1ecf8706e85c420e21886f47d6207b9d8b63a24116df56007557fa5cf0fa029b1efe51cd3198bd544c312bb51c63214eba2e77809b85d97d595d96008557fdbdda48e7d956aef5a29ae0f4f1da17a651ad4ea992658a18426de77665f52f06009557fd96672f10fae8cbf655f1fa056e98e8e2076e311e88ceabc485f8c30468a67af600a55348015620000e957600080fd5b50604051620017333803806200173383398181016040528101906200010f9190620002ef565b6200012f62000123620001f560201b60201c565b620001fd60201b60201c565b83600160006101000a81548173ffffffffffffffffffffffffffffffffffffffff021916908373ffffffffffffffffffffffffffffffffffffffff16021790555082600260006101000a81548173ffffffffffffffffffffffffffffffffffffffff021916908373ffffffffffffffffffffffffffffffffffffffff16021790555081600381905550806004819055507f124e5435d046a7d20714edc1d1e1d01a6252708be1b1e02c232196311db2d10f60405160405180910390a150505050620003e1565b600033905090565b60008060009054906101000a900473ffffffffffffffffffffffffffffffffffffffff169050816000806101000a81548173ffffffffffffffffffffffffffffffffffffffff021916908373ffffffffffffffffffffffffffffffffffffffff1602179055508173ffffffffffffffffffffffffffffffffffffffff168173ffffffffffffffffffffffffffffffffffffffff167f8be0079c531659141344cd1fd0a4f28419497f9722a3daafe3b4186f6b6457e060405160405180910390a35050565b600081519050620002d281620003ad565b92915050565b600081519050620002e981620003c7565b92915050565b600080600080608085870312156200030657600080fd5b60006200031687828801620002c1565b94505060206200032987828801620002c1565b93505060406200033c87828801620002d8565b92505060606200034f87828801620002d8565b91505092959194509250565b6000620003688262000383565b9050919050565b60006200037c826200035b565b9050919050565b600073ffffffffffffffffffffffffffffffffffffffff82169050919050565b6000819050919050565b620003b8816200036f565b8114620003c457600080fd5b50565b620003d281620003a3565b8114620003de57600080fd5b50565b61134280620003f16000396000f3fe60806040526004361061007f5760003560e01c80638ac5f8071161004e5780638ac5f8071461011f5780638da5cb5b1461014a578063df32dac714610175578063f2fde38b1461019157610086565b806301f896651461008b57806362cb6e72146100b4578063715018a6146100df57806386956e23146100f657610086565b3661008657005b600080fd5b34801561009757600080fd5b506100b260048036038101906100ad9190610db5565b6101ba565b005b3480156100c057600080fd5b506100c9610776565b6040516100d6919061100a565b60405180910390f35b3480156100eb57600080fd5b506100f461077c565b005b34801561010257600080fd5b5061011d60048036038101906101189190610df1565b610804565b005b34801561012b57600080fd5b506101346108cb565b604051610141919061100a565b60405180910390f35b34801561015657600080fd5b5061015f6108d1565b60405161016c9190610ee6565b60405180910390f35b61018f600480360381019061018a9190610db5565b6108fa565b005b34801561019d57600080fd5b506101b860048036038101906101b39190610d63565b610b4b565b005b6007548214156102cf57600160009054906101000a900473ffffffffffffffffffffffffffffffffffffffff1673ffffffffffffffffffffffffffffffffffffffff166323b872dd3330846040518463ffffffff1660e01b815260040161022393929190610f01565b602060405180830381600087803b15801561023d57600080fd5b505af1158015610251573d6000803e3d6000fd5b505050506040513d601f19601f820116820180604052508101906102759190610d8c565b503373ffffffffffffffffffffffffffffffffffffffff166108fc6003548361029e9190611090565b9081150290604051600060405180830381858888f193505050501580156102c9573d6000803e3d6000fd5b50610739565b6008548214156103e457600260009054906101000a900473ffffffffffffffffffffffffffffffffffffffff1673ffffffffffffffffffffffffffffffffffffffff166323b872dd3330846040518463ffffffff1660e01b815260040161033893929190610f01565b602060405180830381600087803b15801561035257600080fd5b505af1158015610366573d6000803e3d6000fd5b505050506040513d601f19601f8201168201806040525081019061038a9190610d8c565b503373ffffffffffffffffffffffffffffffffffffffff166108fc600454836103b39190611090565b9081150290604051600060405180830381858888f193505050501580156103de573d6000803e3d6000fd5b50610738565b600a5482141561058f57600160009054906101000a900473ffffffffffffffffffffffffffffffffffffffff1673ffffffffffffffffffffffffffffffffffffffff166323b872dd3330846040518463ffffffff1660e01b815260040161044d93929190610f01565b602060405180830381600087803b15801561046757600080fd5b505af115801561047b573d6000803e3d6000fd5b505050506040513d601f19601f8201168201806040525081019061049f9190610d8c565b5060006003546103e86004546104b59190611090565b6104bf919061105f565b9050600260009054906101000a900473ffffffffffffffffffffffffffffffffffffffff1673ffffffffffffffffffffffffffffffffffffffff1663a9059cbb336103e8848661050f9190611090565b610519919061105f565b6040518363ffffffff1660e01b8152600401610536929190610f38565b602060405180830381600087803b15801561055057600080fd5b505af1158015610564573d6000803e3d6000fd5b505050506040513d601f19601f820116820180604052508101906105889190610d8c565b5050610737565b60095482141561073657600260009054906101000a900473ffffffffffffffffffffffffffffffffffffffff1673ffffffffffffffffffffffffffffffffffffffff166323b872dd3330846040518463ffffffff1660e01b81526004016105f893929190610f01565b602060405180830381600087803b15801561061257600080fd5b505af1158015610626573d6000803e3d6000fd5b505050506040513d601f19601f8201168201806040525081019061064a9190610d8c565b5060006004546103e86003546106609190611090565b61066a919061105f565b9050600160009054906101000a900473ffffffffffffffffffffffffffffffffffffffff1673ffffffffffffffffffffffffffffffffffffffff1663a9059cbb336103e884866106ba9190611090565b6106c4919061105f565b6040518363ffffffff1660e01b81526004016106e1929190610f38565b602060405180830381600087803b1580156106fb57600080fd5b505af115801561070f573d6000803e3d6000fd5b505050506040513d601f19601f820116820180604052508101906107339190610d8c565b50505b5b5b5b7fe822f3c183f2279f61cc63f550e7820f723bd4fd4724ec6617c44a7c1a2b4551828260405161076a929190610f61565b60405180910390a15050565b60035481565b610784610c43565b73ffffffffffffffffffffffffffffffffffffffff166107a26108d1565b73ffffffffffffffffffffffffffffffffffffffff16146107f8576040517f08c379a00000000000000000000000000000000000000000000000000000000081526004016107ef90610fca565b60405180910390fd5b6108026000610c4b565b565b61080c610c43565b73ffffffffffffffffffffffffffffffffffffffff1661082a6108d1565b73ffffffffffffffffffffffffffffffffffffffff1614610880576040517f08c379a000000000000000000000000000000000000000000000000000000000815260040161087790610fca565b60405180910390fd5b81600381905550806004819055507fcf8ba313922618e7da22357ffa0045c136a48272d470cc9eea704dd5f198d3ed82826040516108bf929190611025565b60405180910390a15050565b60045481565b60008060009054906101000a900473ffffffffffffffffffffffffffffffffffffffff16905090565b600554821415610a045734816003546109139190611090565b14610953576040517f08c379a000000000000000000000000000000000000000000000000000000000815260040161094a90610fea565b60405180910390fd5b600160009054906101000a900473ffffffffffffffffffffffffffffffffffffffff1673ffffffffffffffffffffffffffffffffffffffff1663a9059cbb33836040518363ffffffff1660e01b81526004016109b0929190610f38565b602060405180830381600087803b1580156109ca57600080fd5b505af11580156109de573d6000803e3d6000fd5b505050506040513d601f19601f82011682018060405250810190610a029190610d8c565b505b600654821415610b0e573481600454610a1d9190611090565b14610a5d576040517f08c379a0000000000000000000000000000000000000000000000000000000008152600401610a5490610faa565b60405180910390fd5b600260009054906101000a900473ffffffffffffffffffffffffffffffffffffffff1673ffffffffffffffffffffffffffffffffffffffff1663a9059cbb33836040518363ffffffff1660e01b8152600401610aba929190610f38565b602060405180830381600087803b158015610ad457600080fd5b505af1158015610ae8573d6000803e3d6000fd5b505050506040513d601f19601f82011682018060405250810190610b0c9190610d8c565b505b7f9713e765544d3b14c292ebcbd41ad7111559b65d3206c6d3071ba32bc794c1978282604051610b3f929190610f61565b60405180910390a15050565b610b53610c43565b73ffffffffffffffffffffffffffffffffffffffff16610b716108d1565b73ffffffffffffffffffffffffffffffffffffffff1614610bc7576040517f08c379a0000000000000000000000000000000000000000000000000000000008152600401610bbe90610fca565b60405180910390fd5b600073ffffffffffffffffffffffffffffffffffffffff168173ffffffffffffffffffffffffffffffffffffffff161415610c37576040517f08c379a0000000000000000000000000000000000000000000000000000000008152600401610c2e90610f8a565b60405180910390fd5b610c4081610c4b565b50565b600033905090565b60008060009054906101000a900473ffffffffffffffffffffffffffffffffffffffff169050816000806101000a81548173ffffffffffffffffffffffffffffffffffffffff021916908373ffffffffffffffffffffffffffffffffffffffff1602179055508173ffffffffffffffffffffffffffffffffffffffff168173ffffffffffffffffffffffffffffffffffffffff167f8be0079c531659141344cd1fd0a4f28419497f9722a3daafe3b4186f6b6457e060405160405180910390a35050565b600081359050610d1e816112b0565b92915050565b600081519050610d33816112c7565b92915050565b600081359050610d48816112de565b92915050565b600081359050610d5d816112f5565b92915050565b600060208284031215610d7557600080fd5b6000610d8384828501610d0f565b91505092915050565b600060208284031215610d9e57600080fd5b6000610dac84828501610d24565b91505092915050565b60008060408385031215610dc857600080fd5b6000610dd685828601610d39565b9250506020610de785828601610d4e565b9150509250929050565b60008060408385031215610e0457600080fd5b6000610e1285828601610d4e565b9250506020610e2385828601610d4e565b9150509250929050565b610e36816110ea565b82525050565b610e4581611108565b82525050565b6000610e5860268361104e565b9150610e638261119a565b604082019050919050565b6000610e7b603a8361104e565b9150610e86826111e9565b604082019050919050565b6000610e9e60208361104e565b9150610ea982611238565b602082019050919050565b6000610ec160388361104e565b9150610ecc82611261565b604082019050919050565b610ee081611132565b82525050565b6000602082019050610efb6000830184610e2d565b92915050565b6000606082019050610f166000830186610e2d565b610f236020830185610e2d565b610f306040830184610ed7565b949350505050565b6000604082019050610f4d6000830185610e2d565b610f5a6020830184610ed7565b9392505050565b6000604082019050610f766000830185610e3c565b610f836020830184610ed7565b9392505050565b60006020820190508181036000830152610fa381610e4b565b9050919050565b60006020820190508181036000830152610fc381610e6e565b9050919050565b60006020820190508181036000830152610fe381610e91565b9050919050565b6000602082019050818103600083015261100381610eb4565b9050919050565b600060208201905061101f6000830184610ed7565b92915050565b600060408201905061103a6000830185610ed7565b6110476020830184610ed7565b9392505050565b600082825260208201905092915050565b600061106a82611132565b915061107583611132565b9250826110855761108461116b565b5b828204905092915050565b600061109b82611132565b91506110a683611132565b9250817fffffffffffffffffffffffffffffffffffffffffffffffffffffffffffffffff04831182151516156110df576110de61113c565b5b828202905092915050565b60006110f582611112565b9050919050565b60008115159050919050565b6000819050919050565b600073ffffffffffffffffffffffffffffffffffffffff82169050919050565b6000819050919050565b7f4e487b7100000000000000000000000000000000000000000000000000000000600052601160045260246000fd5b7f4e487b7100000000000000000000000000000000000000000000000000000000600052601260045260246000fd5b7f4f776e61626c653a206e6577206f776e657220697320746865207a65726f206160008201527f6464726573730000000000000000000000000000000000000000000000000000602082015250565b7f537761703a2043616c6c6572206861736e277420676f7420656e6f756768204560008201527f544820666f7220627579696e672053696c76657220746f6b656e000000000000602082015250565b7f4f776e61626c653a2063616c6c6572206973206e6f7420746865206f776e6572600082015250565b7f537761703a2043616c6c6572206861736e277420676f7420656e6f756768204560008201527f544820666f7220627579696e6720476f6c6420746f6b656e0000000000000000602082015250565b6112b9816110ea565b81146112c457600080fd5b50565b6112d0816110fc565b81146112db57600080fd5b50565b6112e781611108565b81146112f257600080fd5b50565b6112fe81611132565b811461130957600080fd5b5056fea26469706673582212202150bf53396c630939611d7e69fe56466e6a8821249cbf86eaafe8aeb3df8ddb64736f6c63430008040033",
  "immutableReferences": {},
  "source": "// SPDX-License-Identifier: MIT\npragma solidity ^0.8.0;\n\nimport \"@openzeppelin/contracts/token/ERC20/IERC20.sol\";\nimport \"@openzeppelin/contracts/access/Ownable.sol\";\nimport \"@openzeppelin/contracts/utils/math/SafeMath.sol\";\n\ncontract Swap is Ownable {\n    using SafeMath for uint256;\n\n    IERC20 Gold;\n    IERC20 Silver;\n\n    uint256 public ratioEthToGold;\n    uint256 public ratioEthToSilver;\n\n    bytes32 private EthToGold = keccak256(\"Swap(ETH, Gold)\");\n    bytes32 private EthToSilver = keccak256(\"Swap(ETH, Silver)\");\n\n    bytes32 private GoldToEth = keccak256(\"Swap(Gold, ETH)\");\n    bytes32 private SilverToETh = keccak256(\"Swap(Silver, ETH)\");\n    bytes32 private SilverToGold = keccak256(\"Swap(Silver, Gold)\");\n    bytes32 private GoldToSilver = keccak256(\"Swap(Gold, Silver)\");\n\n    /// @notice Event emitted only on construction.\n    event SwapDeployed();\n\n    /// @notice Event emitted when ETH to token swap finished.\n    event EthToTokenSwapped(bytes32 _type, uint256 _amount);\n\n    /// @notice Event emitted when token to token or token to ETH swap finished.\n    event TokenToEthAndTokenToTokenSwapped(bytes32 _type, uint256 _amount);\n\n    /// @notice Event emitted when ETH to token ratio changed.\n    event TokenRatioChanged(\n        uint256 _newRatioEthToGold,\n        uint256 _newRatioEthToSilver\n    );\n\n    /**\n     * @dev Constructor function\n     * @param _Gold Interface of Gold token\n     * @param _Silver Interface of Silver token\n     * @param _ratioEthToGold Ratio between ETH and Gold\n     * @param _ratioEthToSilver Ratio between ETH and Silver\n     */\n    constructor(\n        IERC20 _Gold,\n        IERC20 _Silver,\n        uint256 _ratioEthToGold,\n        uint256 _ratioEthToSilver\n    ) {\n        Gold = _Gold;\n        Silver = _Silver;\n        ratioEthToGold = _ratioEthToGold;\n        ratioEthToSilver = _ratioEthToSilver;\n\n        emit SwapDeployed();\n    }\n\n    /**\n     * @dev Payable function to swap ETH to token\n     * @param _type Token type which should be swapped\n     * @param _amount Token amount\n     */\n    function swapEthFor(bytes32 _type, uint256 _amount) external payable {\n        if (_type == EthToGold) {\n            require(\n                ratioEthToGold * _amount == msg.value,\n                \"Swap: Caller hasn't got enough ETH for buying Gold token\"\n            );\n            Gold.transfer(msg.sender, _amount);\n        }\n        if (_type == EthToSilver) {\n            require(\n                ratioEthToSilver * _amount == msg.value,\n                \"Swap: Caller hasn't got enough ETH for buying Silver token\"\n            );\n            Silver.transfer(msg.sender, _amount);\n        }\n\n        emit EthToTokenSwapped(_type, _amount);\n    }\n\n    /**\n     * @dev External function to swap token to ETH and token to token\n     * @param _type Token type which should be swapped\n     * @param _amount Token Amount\n     */\n    function swapTokenFor(bytes32 _type, uint256 _amount) external {\n        if (_type == GoldToEth) {\n            Gold.transferFrom(msg.sender, address(this), _amount);\n            payable(msg.sender).transfer(_amount * ratioEthToGold);\n        } else if (_type == SilverToETh) {\n            Silver.transferFrom(msg.sender, address(this), _amount);\n            payable(msg.sender).transfer(_amount * ratioEthToSilver);\n        } else if (_type == GoldToSilver) {\n            Gold.transferFrom(msg.sender, address(this), _amount);\n\n            uint256 silverToGold = ratioEthToSilver * 1000 / ratioEthToGold;\n            Silver.transfer(\n                msg.sender,\n                _amount * silverToGold / 1000\n            );\n        } else if (_type == SilverToGold) {\n            Silver.transferFrom(msg.sender, address(this), _amount);\n            uint256 goldToSilver = ratioEthToGold * 1000 / ratioEthToSilver;\n            Gold.transfer(\n                msg.sender,\n                _amount * goldToSilver / 1000\n            );\n        }\n\n        emit TokenToEthAndTokenToTokenSwapped(_type, _amount);\n    }\n\n    /**\n     * @dev External function to set token ratios. This function can be called by only owner.\n     * @param _newRatioEthToGold New Eth to gold token ratio\n     * @param _newRatioEthToSilver New Eth to silver token ratio\n     */\n    function changeTokenRatio(\n        uint256 _newRatioEthToGold,\n        uint256 _newRatioEthToSilver\n    ) external onlyOwner {\n        ratioEthToGold = _newRatioEthToGold;\n        ratioEthToSilver = _newRatioEthToSilver;\n\n        emit TokenRatioChanged(_newRatioEthToGold, _newRatioEthToSilver);\n    }\n\n    receive() external payable {}\n}\n",
  "sourcePath": "E:\\BlockChain_Workspace\\Test\\TokenSwap\\contracts\\Swap.sol",
  "compiler": {
    "name": "solc",
    "version": "0.8.4+commit.c7e474f2.Emscripten.clang"
  },
  "schemaVersion": "3.4.2",
  "updatedAt": "2021-08-10T12:17:32.456Z",
  "devdoc": {
    "kind": "dev",
    "methods": {
      "changeTokenRatio(uint256,uint256)": {
        "details": "External function to set token ratios. This function can be called by only owner.",
        "params": {
          "_newRatioEthToGold": "New Eth to gold token ratio",
          "_newRatioEthToSilver": "New Eth to silver token ratio"
        }
      },
      "constructor": {
        "details": "Constructor function",
        "params": {
          "_Gold": "Interface of Gold token",
          "_Silver": "Interface of Silver token",
          "_ratioEthToGold": "Ratio between ETH and Gold",
          "_ratioEthToSilver": "Ratio between ETH and Silver"
        }
      },
      "owner()": {
        "details": "Returns the address of the current owner."
      },
      "renounceOwnership()": {
        "details": "Leaves the contract without owner. It will not be possible to call `onlyOwner` functions anymore. Can only be called by the current owner. NOTE: Renouncing ownership will leave the contract without an owner, thereby removing any functionality that is only available to the owner."
      },
      "swapEthFor(bytes32,uint256)": {
        "details": "Payable function to swap ETH to token",
        "params": {
          "_amount": "Token amount",
          "_type": "Token type which should be swapped"
        }
      },
      "swapTokenFor(bytes32,uint256)": {
        "details": "External function to swap token to ETH and token to token",
        "params": {
          "_amount": "Token Amount",
          "_type": "Token type which should be swapped"
        }
      },
      "transferOwnership(address)": {
        "details": "Transfers ownership of the contract to a new account (`newOwner`). Can only be called by the current owner."
      }
    },
    "version": 1
  },
  "userdoc": {
    "events": {
      "EthToTokenSwapped(bytes32,uint256)": {
        "notice": "Event emitted when ETH to token swap finished."
      },
      "SwapDeployed()": {
        "notice": "Event emitted only on construction."
      },
      "TokenRatioChanged(uint256,uint256)": {
        "notice": "Event emitted when ETH to token ratio changed."
      },
      "TokenToEthAndTokenToTokenSwapped(bytes32,uint256)": {
        "notice": "Event emitted when token to token or token to ETH swap finished."
      }
    },
    "kind": "user",
    "methods": {},
    "version": 1
  }
}